{
  "contractName": "AssetTransactionSystem",
  "abi": [
    {
      "inputs": [
        {
          "internalType": "uint256",
          "name": "_taxRate",
          "type": "uint256"
        },
        {
          "internalType": "address",
          "name": "_taxAdmin",
          "type": "address"
        }
      ],
      "stateMutability": "nonpayable",
      "type": "constructor"
    },
    {
      "anonymous": false,
      "inputs": [
        {
          "indexed": false,
          "internalType": "uint256",
          "name": "assetId",
          "type": "uint256"
        },
        {
          "indexed": false,
          "internalType": "string",
          "name": "name",
          "type": "string"
        },
        {
          "indexed": false,
          "internalType": "uint256",
          "name": "value",
          "type": "uint256"
        },
        {
          "indexed": false,
          "internalType": "address",
          "name": "owner",
          "type": "address"
        }
      ],
      "name": "AssetRegistered",
      "type": "event"
    },
    {
      "anonymous": false,
      "inputs": [
        {
          "indexed": false,
          "internalType": "uint256",
          "name": "assetId",
          "type": "uint256"
        },
        {
          "indexed": false,
          "internalType": "address",
          "name": "from",
          "type": "address"
        },
        {
          "indexed": false,
          "internalType": "address",
          "name": "to",
          "type": "address"
        },
        {
          "indexed": false,
          "internalType": "uint256",
          "name": "value",
          "type": "uint256"
        },
        {
          "indexed": false,
          "internalType": "uint256",
          "name": "taxPaid",
          "type": "uint256"
        }
      ],
      "name": "AssetTransferred",
      "type": "event"
    },
    {
      "inputs": [],
      "name": "admin",
      "outputs": [
        {
          "internalType": "address",
          "name": "",
          "type": "address"
        }
      ],
      "stateMutability": "view",
      "type": "function",
      "constant": true
    },
    {
      "inputs": [
        {
          "internalType": "uint256",
          "name": "",
          "type": "uint256"
        }
      ],
      "name": "assets",
      "outputs": [
        {
          "internalType": "uint256",
          "name": "id",
          "type": "uint256"
        },
        {
          "internalType": "string",
          "name": "name",
          "type": "string"
        },
        {
          "internalType": "uint256",
          "name": "value",
          "type": "uint256"
        },
        {
          "internalType": "address",
          "name": "owner",
          "type": "address"
        },
        {
          "internalType": "bool",
          "name": "isRegistered",
          "type": "bool"
        }
      ],
      "stateMutability": "view",
      "type": "function",
      "constant": true
    },
    {
      "inputs": [],
      "name": "nextAssetId",
      "outputs": [
        {
          "internalType": "uint256",
          "name": "",
          "type": "uint256"
        }
      ],
      "stateMutability": "view",
      "type": "function",
      "constant": true
    },
    {
      "inputs": [],
      "name": "nextTransactionId",
      "outputs": [
        {
          "internalType": "uint256",
          "name": "",
          "type": "uint256"
        }
      ],
      "stateMutability": "view",
      "type": "function",
      "constant": true
    },
    {
      "inputs": [],
      "name": "taxAdmin",
      "outputs": [
        {
          "internalType": "address",
          "name": "",
          "type": "address"
        }
      ],
      "stateMutability": "view",
      "type": "function",
      "constant": true
    },
    {
      "inputs": [],
      "name": "taxRate",
      "outputs": [
        {
          "internalType": "uint256",
          "name": "",
          "type": "uint256"
        }
      ],
      "stateMutability": "view",
      "type": "function",
      "constant": true
    },
    {
      "inputs": [
        {
          "internalType": "uint256",
          "name": "",
          "type": "uint256"
        }
      ],
      "name": "transactions",
      "outputs": [
        {
          "internalType": "uint256",
          "name": "assetId",
          "type": "uint256"
        },
        {
          "internalType": "address",
          "name": "from",
          "type": "address"
        },
        {
          "internalType": "address",
          "name": "to",
          "type": "address"
        },
        {
          "internalType": "uint256",
          "name": "value",
          "type": "uint256"
        },
        {
          "internalType": "uint256",
          "name": "taxPaid",
          "type": "uint256"
        },
        {
          "internalType": "uint256",
          "name": "timestamp",
          "type": "uint256"
        }
      ],
      "stateMutability": "view",
      "type": "function",
      "constant": true
    },
    {
      "stateMutability": "payable",
      "type": "receive",
      "payable": true
    },
    {
      "inputs": [
        {
          "internalType": "string",
          "name": "_name",
          "type": "string"
        },
        {
          "internalType": "uint256",
          "name": "_value",
          "type": "uint256"
        }
      ],
      "name": "registerAsset",
      "outputs": [],
      "stateMutability": "nonpayable",
      "type": "function"
    },
    {
      "inputs": [
        {
          "internalType": "uint256",
          "name": "_assetId",
          "type": "uint256"
        }
      ],
      "name": "calculateTax",
      "outputs": [
        {
          "internalType": "uint256",
          "name": "",
          "type": "uint256"
        }
      ],
      "stateMutability": "view",
      "type": "function",
      "constant": true
    },
    {
      "inputs": [],
      "name": "deposit",
      "outputs": [],
      "stateMutability": "payable",
      "type": "function",
      "payable": true
    },
    {
      "inputs": [
        {
          "internalType": "uint256",
          "name": "_assetId",
          "type": "uint256"
        },
        {
          "internalType": "address",
          "name": "_to",
          "type": "address"
        }
      ],
      "name": "transferAsset",
      "outputs": [],
      "stateMutability": "nonpayable",
      "type": "function"
    },
    {
      "inputs": [
        {
          "internalType": "uint256",
          "name": "_transactionId",
          "type": "uint256"
        }
      ],
      "name": "getTransactionDetails",
      "outputs": [
        {
          "components": [
            {
              "internalType": "uint256",
              "name": "assetId",
              "type": "uint256"
            },
            {
              "internalType": "address",
              "name": "from",
              "type": "address"
            },
            {
              "internalType": "address",
              "name": "to",
              "type": "address"
            },
            {
              "internalType": "uint256",
              "name": "value",
              "type": "uint256"
            },
            {
              "internalType": "uint256",
              "name": "taxPaid",
              "type": "uint256"
            },
            {
              "internalType": "uint256",
              "name": "timestamp",
              "type": "uint256"
            }
          ],
          "internalType": "struct AssetTransactionSystem.Transaction",
          "name": "",
          "type": "tuple"
        }
      ],
      "stateMutability": "view",
      "type": "function",
      "constant": true
    }
  ],
  "bytecode": "0x60806040523480156200001157600080fd5b506040516200183438038062001834833981810160405281019062000037919062000168565b600073ffffffffffffffffffffffffffffffffffffffff168173ffffffffffffffffffffffffffffffffffffffff161415620000aa576040517f08c379a0000000000000000000000000000000000000000000000000000000008152600401620000a190620001eb565b60405180910390fd5b336000806101000a81548173ffffffffffffffffffffffffffffffffffffffff021916908373ffffffffffffffffffffffffffffffffffffffff1602179055508160058190555080600660006101000a81548173ffffffffffffffffffffffffffffffffffffffff021916908373ffffffffffffffffffffffffffffffffffffffff160217905550505062000290565b6000815190506200014b816200025c565b92915050565b600081519050620001628162000276565b92915050565b600080604083850312156200017c57600080fd5b60006200018c8582860162000151565b92505060206200019f858286016200013a565b9150509250929050565b6000620001b86020836200020d565b91507f5461782061646d696e20616464726573732063616e6e6f74206265207a65726f6000830152602082019050919050565b600060208201905081810360008301526200020681620001a9565b9050919050565b600082825260208201905092915050565b60006200022b8262000232565b9050919050565b600073ffffffffffffffffffffffffffffffffffffffff82169050919050565b6000819050919050565b62000267816200021e565b81146200027357600080fd5b50565b620002818162000252565b81146200028d57600080fd5b50565b61159480620002a06000396000f3fe6080604052600436106100ab5760003560e01c8063cf35bdd011610064578063cf35bdd0146101f4578063d0e30db014610235578063d7ca38f31461023f578063f65db1501461026a578063f851a44014610293578063fa62ee8d146102be576100b2565b80630fa683d3146100b75780633a9d84db146100f4578063483a93101461011f578063771a3a1d1461015c5780638ed91318146101875780639ace38c2146101b2576100b2565b366100b257005b600080fd5b3480156100c357600080fd5b506100de60048036038101906100d99190610d1b565b6102e7565b6040516100eb91906110bb565b60405180910390f35b34801561010057600080fd5b506101096103e8565b6040516101169190611020565b60405180910390f35b34801561012b57600080fd5b5061014660048036038101906101419190610d1b565b61040e565b60405161015391906110d6565b60405180910390f35b34801561016857600080fd5b50610171610447565b60405161017e91906110d6565b60405180910390f35b34801561019357600080fd5b5061019c61044d565b6040516101a991906110d6565b60405180910390f35b3480156101be57600080fd5b506101d960048036038101906101d49190610d1b565b610453565b6040516101eb96959493929190611144565b60405180910390f35b34801561020057600080fd5b5061021b60048036038101906102169190610d1b565b6104cf565b60405161022c9594939291906111f1565b60405180910390f35b61023d6105ba565b005b34801561024b57600080fd5b506102546105ff565b60405161026191906110d6565b60405180910390f35b34801561027657600080fd5b50610291600480360381019061028c9190610cc7565b610605565b005b34801561029f57600080fd5b506102a8610750565b6040516102b59190611020565b60405180910390f35b3480156102ca57600080fd5b506102e560048036038101906102e09190610d44565b610774565b005b6102ef610b30565b600260008381526020019081526020016000206040518060c0016040529081600082015481526020016001820160009054906101000a900473ffffffffffffffffffffffffffffffffffffffff1673ffffffffffffffffffffffffffffffffffffffff1673ffffffffffffffffffffffffffffffffffffffff1681526020016002820160009054906101000a900473ffffffffffffffffffffffffffffffffffffffff1673ffffffffffffffffffffffffffffffffffffffff1673ffffffffffffffffffffffffffffffffffffffff16815260200160038201548152602001600482015481526020016005820154815250509050919050565b600660009054906101000a900473ffffffffffffffffffffffffffffffffffffffff1681565b6000606460055460016000858152602001908152602001600020600201546104369190611304565b61044091906112d3565b9050919050565b60055481565b60035481565b60026020528060005260406000206000915090508060000154908060010160009054906101000a900473ffffffffffffffffffffffffffffffffffffffff16908060020160009054906101000a900473ffffffffffffffffffffffffffffffffffffffff16908060030154908060040154908060050154905086565b60016020528060005260406000206000915090508060000154908060010180546104f8906113e8565b80601f0160208091040260200160405190810160405280929190818152602001828054610524906113e8565b80156105715780601f1061054657610100808354040283529160200191610571565b820191906000526020600020905b81548152906001019060200180831161055457829003601f168201915b5050505050908060020154908060030160009054906101000a900473ffffffffffffffffffffffffffffffffffffffff16908060030160149054906101000a900460ff16905085565b600034116105fd576040517f08c379a00000000000000000000000000000000000000000000000000000000081526004016105f49061103b565b60405180910390fd5b565b60045481565b60006003600081548092919061061a9061141a565b9190505590506040518060a001604052808281526020018481526020018381526020013373ffffffffffffffffffffffffffffffffffffffff1681526020016001151581525060016000838152602001908152602001600020600082015181600001556020820151816001019080519060200190610699929190610b92565b506040820151816002015560608201518160030160006101000a81548173ffffffffffffffffffffffffffffffffffffffff021916908373ffffffffffffffffffffffffffffffffffffffff16021790555060808201518160030160146101000a81548160ff0219169083151502179055509050507fe0260522a98ce785f3a36a80f374a55bcdbb080a0d2abdaea454e025f09345ab8184843360405161074394939291906111a5565b60405180910390a1505050565b60008054906101000a900473ffffffffffffffffffffffffffffffffffffffff1681565b813373ffffffffffffffffffffffffffffffffffffffff166001600083815260200190815260200160002060030160009054906101000a900473ffffffffffffffffffffffffffffffffffffffff1673ffffffffffffffffffffffffffffffffffffffff1614610819576040517f08c379a00000000000000000000000000000000000000000000000000000000081526004016108109061109b565b60405180910390fd5b60006001600085815260200190815260200160002090506000606460055483600201546108469190611304565b61085091906112d3565b905080471015610895576040517f08c379a000000000000000000000000000000000000000000000000000000000815260040161088c9061105b565b60405180910390fd5b6000600660009054906101000a900473ffffffffffffffffffffffffffffffffffffffff1673ffffffffffffffffffffffffffffffffffffffff16826040516108dd9061100b565b60006040518083038185875af1925050503d806000811461091a576040519150601f19603f3d011682016040523d82523d6000602084013e61091f565b606091505b5050905080610963576040517f08c379a000000000000000000000000000000000000000000000000000000000815260040161095a9061107b565b60405180910390fd5b848360030160006101000a81548173ffffffffffffffffffffffffffffffffffffffff021916908373ffffffffffffffffffffffffffffffffffffffff1602179055506040518060c001604052808781526020013373ffffffffffffffffffffffffffffffffffffffff1681526020018673ffffffffffffffffffffffffffffffffffffffff16815260200184600201548152602001838152602001428152506002600060046000815480929190610a1a9061141a565b9190505581526020019081526020016000206000820151816000015560208201518160010160006101000a81548173ffffffffffffffffffffffffffffffffffffffff021916908373ffffffffffffffffffffffffffffffffffffffff16021790555060408201518160020160006101000a81548173ffffffffffffffffffffffffffffffffffffffff021916908373ffffffffffffffffffffffffffffffffffffffff160217905550606082015181600301556080820151816004015560a082015181600501559050507fe17df34c41a43b850ebae2a95e60e9e28e6557b93ae34d6f32d7cd9f15d8e16b863387866002015486604051610b209594939291906110f1565b60405180910390a1505050505050565b6040518060c0016040528060008152602001600073ffffffffffffffffffffffffffffffffffffffff168152602001600073ffffffffffffffffffffffffffffffffffffffff1681526020016000815260200160008152602001600081525090565b828054610b9e906113e8565b90600052602060002090601f016020900481019282610bc05760008555610c07565b82601f10610bd957805160ff1916838001178555610c07565b82800160010185558215610c07579182015b82811115610c06578251825591602001919060010190610beb565b5b509050610c149190610c18565b5090565b5b80821115610c31576000816000905550600101610c19565b5090565b6000610c48610c438461127c565b61124b565b905082815260208101848484011115610c6057600080fd5b610c6b8482856113a6565b509392505050565b600081359050610c8281611530565b92915050565b600082601f830112610c9957600080fd5b8135610ca9848260208601610c35565b91505092915050565b600081359050610cc181611547565b92915050565b60008060408385031215610cda57600080fd5b600083013567ffffffffffffffff811115610cf457600080fd5b610d0085828601610c88565b9250506020610d1185828601610cb2565b9150509250929050565b600060208284031215610d2d57600080fd5b6000610d3b84828501610cb2565b91505092915050565b60008060408385031215610d5757600080fd5b6000610d6585828601610cb2565b9250506020610d7685828601610c73565b9150509250929050565b610d898161135e565b82525050565b610d988161135e565b82525050565b610da781611370565b82525050565b6000610db8826112ac565b610dc281856112c2565b9350610dd28185602086016113b5565b610ddb8161151f565b840191505092915050565b6000610df36025836112c2565b91507f4465706f73697420616d6f756e74206d7573742062652067726561746572207460008301527f68616e20300000000000000000000000000000000000000000000000000000006020830152604082019050919050565b6000610e596025836112c2565b91507f436f6e747261637420646f6573206e6f74206861766520656e6f75676820626160008301527f6c616e63650000000000000000000000000000000000000000000000000000006020830152604082019050919050565b6000610ebf6012836112c2565b91507f4661696c656420746f2073656e642074617800000000000000000000000000006000830152602082019050919050565b6000610eff6000836112b7565b9150600082019050919050565b6000610f196028836112c2565b91507f4f6e6c79206173736574206f776e65722063616e20706572666f726d2074686960008301527f7320616374696f6e0000000000000000000000000000000000000000000000006020830152604082019050919050565b60c082016000820151610f886000850182610fed565b506020820151610f9b6020850182610d80565b506040820151610fae6040850182610d80565b506060820151610fc16060850182610fed565b506080820151610fd46080850182610fed565b5060a0820151610fe760a0850182610fed565b50505050565b610ff68161139c565b82525050565b6110058161139c565b82525050565b600061101682610ef2565b9150819050919050565b60006020820190506110356000830184610d8f565b92915050565b6000602082019050818103600083015261105481610de6565b9050919050565b6000602082019050818103600083015261107481610e4c565b9050919050565b6000602082019050818103600083015261109481610eb2565b9050919050565b600060208201905081810360008301526110b481610f0c565b9050919050565b600060c0820190506110d06000830184610f72565b92915050565b60006020820190506110eb6000830184610ffc565b92915050565b600060a0820190506111066000830188610ffc565b6111136020830187610d8f565b6111206040830186610d8f565b61112d6060830185610ffc565b61113a6080830184610ffc565b9695505050505050565b600060c0820190506111596000830189610ffc565b6111666020830188610d8f565b6111736040830187610d8f565b6111806060830186610ffc565b61118d6080830185610ffc565b61119a60a0830184610ffc565b979650505050505050565b60006080820190506111ba6000830187610ffc565b81810360208301526111cc8186610dad565b90506111db6040830185610ffc565b6111e86060830184610d8f565b95945050505050565b600060a0820190506112066000830188610ffc565b81810360208301526112188187610dad565b90506112276040830186610ffc565b6112346060830185610d8f565b6112416080830184610d9e565b9695505050505050565b6000604051905081810181811067ffffffffffffffff82111715611272576112716114f0565b5b8060405250919050565b600067ffffffffffffffff821115611297576112966114f0565b5b601f19601f8301169050602081019050919050565b600081519050919050565b600081905092915050565b600082825260208201905092915050565b60006112de8261139c565b91506112e98361139c565b9250826112f9576112f8611492565b5b828204905092915050565b600061130f8261139c565b915061131a8361139c565b9250817fffffffffffffffffffffffffffffffffffffffffffffffffffffffffffffffff048311821515161561135357611352611463565b5b828202905092915050565b60006113698261137c565b9050919050565b60008115159050919050565b600073ffffffffffffffffffffffffffffffffffffffff82169050919050565b6000819050919050565b82818337600083830152505050565b60005b838110156113d35780820151818401526020810190506113b8565b838111156113e2576000848401525b50505050565b6000600282049050600182168061140057607f821691505b60208210811415611414576114136114c1565b5b50919050565b60006114258261139c565b91507fffffffffffffffffffffffffffffffffffffffffffffffffffffffffffffffff82141561145857611457611463565b5b600182019050919050565b7f4e487b7100000000000000000000000000000000000000000000000000000000600052601160045260246000fd5b7f4e487b7100000000000000000000000000000000000000000000000000000000600052601260045260246000fd5b7f4e487b7100000000000000000000000000000000000000000000000000000000600052602260045260246000fd5b7f4e487b7100000000000000000000000000000000000000000000000000000000600052604160045260246000fd5b6000601f19601f8301169050919050565b6115398161135e565b811461154457600080fd5b50565b6115508161139c565b811461155b57600080fd5b5056fea2646970667358221220061aa7cef71b8e4f9680a7f647855a6cff0be2115edb8e470645bbe8cbf94c7f64736f6c63430008000033",
  "immutableReferences": {},
  "source": "// SPDX-License-Identifier: UNLICENSED\r\n\r\n\r\npragma solidity ^0.8.0;\r\n\r\ncontract AssetTransactionSystem {\r\n\r\n    address public admin;\r\n\r\n    struct Asset {\r\n        uint256 id;\r\n        string name;\r\n        uint256 value;\r\n        address owner;\r\n        bool isRegistered;\r\n    }\r\n\r\n    struct Transaction {\r\n        uint256 assetId;\r\n        address from;\r\n        address to;\r\n        uint256 value;\r\n        uint256 taxPaid;\r\n        uint256 timestamp;\r\n    }\r\n\r\n    mapping(uint256 => Asset) public assets;\r\n    mapping(uint256 => Transaction) public transactions;\r\n    uint256 public nextAssetId;\r\n    uint256 public nextTransactionId;\r\n    uint256 public taxRate;\r\n\r\n    event AssetRegistered(uint256 assetId, string name, uint256 value, address owner);\r\n    event AssetTransferred(uint256 assetId, address from, address to, uint256 value, uint256 taxPaid);\r\n\r\n    address public taxAdmin; \r\n\r\n   // constructor(uint256 _taxRate) {\r\n     //   admin = msg.sender;\r\n       // taxRate = _taxRate;\r\n   // }\r\n\r\n    constructor(uint256 _taxRate, address _taxAdmin) {\r\n        require(_taxAdmin != address(0), \"Tax admin address cannot be zero\");\r\n        admin = msg.sender;\r\n        taxRate = _taxRate;\r\n        taxAdmin = _taxAdmin;\r\n    }\r\n\r\n\r\n\r\n    modifier onlyAdmin() {\r\n        require(msg.sender == admin, \"Only admin can perform this action\");\r\n        _;\r\n    }\r\n\r\n    modifier onlyOwner(uint256 _assetId) {\r\n        require(assets[_assetId].owner == msg.sender, \"Only asset owner can perform this action\");\r\n        _;\r\n    }\r\n\r\n    function registerAsset(string memory _name, uint256 _value) public {\r\n        uint256 assetId = nextAssetId++;\r\n        assets[assetId] = Asset(assetId, _name, _value, msg.sender, true);\r\n        emit AssetRegistered(assetId, _name, _value, msg.sender);\r\n    }\r\n\r\n    //calculate tax for the asset and return\r\n\r\n    function calculateTax(uint256 _assetId) public view returns (uint256) {\r\n        return (assets[_assetId].value * taxRate) / 100;\r\n    }\r\n\r\n\r\n\r\n\r\nreceive() external payable {}\r\n\r\nfunction deposit() public payable {\r\n    require(msg.value > 0, \"Deposit amount must be greater than 0\");\r\n}\r\n    \r\nfunction transferAsset(uint256 _assetId, address _to) public onlyOwner(_assetId) {\r\n        Asset storage asset = assets[_assetId];\r\n        uint256 taxPaid = (asset.value * taxRate) / 100;\r\n\r\n        require(address(this).balance >= taxPaid, \"Contract does not have enough balance\");\r\n        \r\n        // Send tax to taxAdmin\r\n        //(bool sent, ) = taxAdmin.call{value: taxPaid}(\"\");\r\n        (bool sent, ) = payable(taxAdmin).call{value: taxPaid}(\"\");\r\n        require(sent, \"Failed to send tax\");\r\n        \r\n        // Transfer asset\r\n        asset.owner = _to;\r\n        transactions[nextTransactionId++] = Transaction(_assetId, msg.sender, _to, asset.value, taxPaid, block.timestamp);\r\n        emit AssetTransferred(_assetId, msg.sender, _to, asset.value, taxPaid);\r\n\r\n    }\r\n\r\n\r\n    function getTransactionDetails(uint256 _transactionId) public view returns (Transaction memory) {\r\n        return transactions[_transactionId];\r\n    }\r\n}\r\n\r\n",
  "sourcePath": "D:\\NSBM\\FINAL year\\Final year Research\\Project_Blockchain\\Truffletest\\contracts\\AssetTransactions.sol",
  "compiler": {
    "name": "solc",
    "version": "0.8.0+commit.c7dfd78e.Emscripten.clang"
  },
  "schemaVersion": "3.4.16",
  "updatedAt": "2023-10-29T19:34:20.193Z",
  "networkType": "ethereum",
  "devdoc": {
    "kind": "dev",
    "methods": {},
    "version": 1
  },
  "userdoc": {
    "kind": "user",
    "methods": {},
    "version": 1
  }
}