{
  "contractName": "AssetTransactionSystem",
  "abi": [
    {
      "inputs": [
        {
          "internalType": "uint256",
          "name": "_taxRate",
          "type": "uint256"
        },
        {
          "internalType": "address",
          "name": "_taxAdmin",
          "type": "address"
        }
      ],
      "stateMutability": "nonpayable",
      "type": "constructor"
    },
    {
      "anonymous": false,
      "inputs": [
        {
          "indexed": false,
          "internalType": "uint256",
          "name": "assetId",
          "type": "uint256"
        },
        {
          "indexed": false,
          "internalType": "string",
          "name": "name",
          "type": "string"
        },
        {
          "indexed": false,
          "internalType": "uint256",
          "name": "value",
          "type": "uint256"
        },
        {
          "indexed": false,
          "internalType": "address",
          "name": "owner",
          "type": "address"
        }
      ],
      "name": "AssetRegistered",
      "type": "event"
    },
    {
      "anonymous": false,
      "inputs": [
        {
          "indexed": false,
          "internalType": "uint256",
          "name": "assetId",
          "type": "uint256"
        },
        {
          "indexed": false,
          "internalType": "address",
          "name": "from",
          "type": "address"
        },
        {
          "indexed": false,
          "internalType": "address",
          "name": "to",
          "type": "address"
        },
        {
          "indexed": false,
          "internalType": "uint256",
          "name": "value",
          "type": "uint256"
        },
        {
          "indexed": false,
          "internalType": "uint256",
          "name": "taxPaid",
          "type": "uint256"
        }
      ],
      "name": "AssetTransferred",
      "type": "event"
    },
    {
      "inputs": [],
      "name": "admin",
      "outputs": [
        {
          "internalType": "address",
          "name": "",
          "type": "address"
        }
      ],
      "stateMutability": "view",
      "type": "function",
      "constant": true
    },
    {
      "inputs": [
        {
          "internalType": "uint256",
          "name": "",
          "type": "uint256"
        }
      ],
      "name": "assets",
      "outputs": [
        {
          "internalType": "uint256",
          "name": "id",
          "type": "uint256"
        },
        {
          "internalType": "string",
          "name": "name",
          "type": "string"
        },
        {
          "internalType": "uint256",
          "name": "value",
          "type": "uint256"
        },
        {
          "internalType": "address",
          "name": "owner",
          "type": "address"
        },
        {
          "internalType": "bool",
          "name": "isRegistered",
          "type": "bool"
        }
      ],
      "stateMutability": "view",
      "type": "function",
      "constant": true
    },
    {
      "inputs": [],
      "name": "nextAssetId",
      "outputs": [
        {
          "internalType": "uint256",
          "name": "",
          "type": "uint256"
        }
      ],
      "stateMutability": "view",
      "type": "function",
      "constant": true
    },
    {
      "inputs": [],
      "name": "nextTransactionId",
      "outputs": [
        {
          "internalType": "uint256",
          "name": "",
          "type": "uint256"
        }
      ],
      "stateMutability": "view",
      "type": "function",
      "constant": true
    },
    {
      "inputs": [],
      "name": "taxAdmin",
      "outputs": [
        {
          "internalType": "address",
          "name": "",
          "type": "address"
        }
      ],
      "stateMutability": "view",
      "type": "function",
      "constant": true
    },
    {
      "inputs": [],
      "name": "taxRate",
      "outputs": [
        {
          "internalType": "uint256",
          "name": "",
          "type": "uint256"
        }
      ],
      "stateMutability": "view",
      "type": "function",
      "constant": true
    },
    {
      "inputs": [
        {
          "internalType": "uint256",
          "name": "",
          "type": "uint256"
        }
      ],
      "name": "transactions",
      "outputs": [
        {
          "internalType": "uint256",
          "name": "assetId",
          "type": "uint256"
        },
        {
          "internalType": "address",
          "name": "from",
          "type": "address"
        },
        {
          "internalType": "address",
          "name": "to",
          "type": "address"
        },
        {
          "internalType": "uint256",
          "name": "value",
          "type": "uint256"
        },
        {
          "internalType": "uint256",
          "name": "taxPaid",
          "type": "uint256"
        },
        {
          "internalType": "uint256",
          "name": "timestamp",
          "type": "uint256"
        }
      ],
      "stateMutability": "view",
      "type": "function",
      "constant": true
    },
    {
      "inputs": [
        {
          "internalType": "string",
          "name": "_name",
          "type": "string"
        },
        {
          "internalType": "uint256",
          "name": "_value",
          "type": "uint256"
        }
      ],
      "name": "registerAsset",
      "outputs": [],
      "stateMutability": "nonpayable",
      "type": "function"
    },
    {
      "inputs": [
        {
          "internalType": "uint256",
          "name": "_assetId",
          "type": "uint256"
        }
      ],
      "name": "calculateTax",
      "outputs": [
        {
          "internalType": "uint256",
          "name": "",
          "type": "uint256"
        }
      ],
      "stateMutability": "view",
      "type": "function",
      "constant": true
    },
    {
      "inputs": [
        {
          "internalType": "uint256",
          "name": "_assetId",
          "type": "uint256"
        },
        {
          "internalType": "address",
          "name": "_to",
          "type": "address"
        }
      ],
      "name": "transferAsset",
      "outputs": [],
      "stateMutability": "payable",
      "type": "function",
      "payable": true
    },
    {
      "inputs": [
        {
          "internalType": "uint256",
          "name": "_transactionId",
          "type": "uint256"
        }
      ],
      "name": "getTransactionDetails",
      "outputs": [
        {
          "components": [
            {
              "internalType": "uint256",
              "name": "assetId",
              "type": "uint256"
            },
            {
              "internalType": "address",
              "name": "from",
              "type": "address"
            },
            {
              "internalType": "address",
              "name": "to",
              "type": "address"
            },
            {
              "internalType": "uint256",
              "name": "value",
              "type": "uint256"
            },
            {
              "internalType": "uint256",
              "name": "taxPaid",
              "type": "uint256"
            },
            {
              "internalType": "uint256",
              "name": "timestamp",
              "type": "uint256"
            }
          ],
          "internalType": "struct AssetTransactionSystem.Transaction",
          "name": "",
          "type": "tuple"
        }
      ],
      "stateMutability": "view",
      "type": "function",
      "constant": true
    }
  ],
  "bytecode": "0x60806040523480156200001157600080fd5b506040516200170038038062001700833981810160405281019062000037919062000168565b600073ffffffffffffffffffffffffffffffffffffffff168173ffffffffffffffffffffffffffffffffffffffff161415620000aa576040517f08c379a0000000000000000000000000000000000000000000000000000000008152600401620000a190620001eb565b60405180910390fd5b336000806101000a81548173ffffffffffffffffffffffffffffffffffffffff021916908373ffffffffffffffffffffffffffffffffffffffff1602179055508160018190555080600260006101000a81548173ffffffffffffffffffffffffffffffffffffffff021916908373ffffffffffffffffffffffffffffffffffffffff160217905550505062000290565b6000815190506200014b816200025c565b92915050565b600081519050620001628162000276565b92915050565b600080604083850312156200017c57600080fd5b60006200018c8582860162000151565b92505060206200019f858286016200013a565b9150509250929050565b6000620001b86020836200020d565b91507f5461782061646d696e20616464726573732063616e6e6f74206265207a65726f6000830152602082019050919050565b600060208201905081810360008301526200020681620001a9565b9050919050565b600082825260208201905092915050565b60006200022b8262000232565b9050919050565b600073ffffffffffffffffffffffffffffffffffffffff82169050919050565b6000819050919050565b62000267816200021e565b81146200027357600080fd5b50565b620002818162000252565b81146200028d57600080fd5b50565b61146080620002a06000396000f3fe60806040526004361061009c5760003560e01c80639ace38c2116100645780639ace38c21461019c578063cf35bdd0146101de578063d7ca38f31461021f578063f65db1501461024a578063f851a44014610273578063fa62ee8d1461029e5761009c565b80630fa683d3146100a15780633a9d84db146100de578063483a931014610109578063771a3a1d146101465780638ed9131814610171575b600080fd5b3480156100ad57600080fd5b506100c860048036038101906100c39190610c93565b6102ba565b6040516100d59190610f87565b60405180910390f35b3480156100ea57600080fd5b506100f36103bb565b6040516101009190610f0c565b60405180910390f35b34801561011557600080fd5b50610130600480360381019061012b9190610c93565b6103e1565b60405161013d9190610fa2565b60405180910390f35b34801561015257600080fd5b5061015b61041a565b6040516101689190610fa2565b60405180910390f35b34801561017d57600080fd5b50610186610420565b6040516101939190610fa2565b60405180910390f35b3480156101a857600080fd5b506101c360048036038101906101be9190610c93565b610426565b6040516101d596959493929190611010565b60405180910390f35b3480156101ea57600080fd5b5061020560048036038101906102009190610c93565b6104a2565b6040516102169594939291906110bd565b60405180910390f35b34801561022b57600080fd5b5061023461058d565b6040516102419190610fa2565b60405180910390f35b34801561025657600080fd5b50610271600480360381019061026c9190610c3f565b610593565b005b34801561027f57600080fd5b506102886106de565b6040516102959190610f0c565b60405180910390f35b6102b860048036038101906102b39190610cbc565b610702565b005b6102c2610aa8565b600460008381526020019081526020016000206040518060c0016040529081600082015481526020016001820160009054906101000a900473ffffffffffffffffffffffffffffffffffffffff1673ffffffffffffffffffffffffffffffffffffffff1673ffffffffffffffffffffffffffffffffffffffff1681526020016002820160009054906101000a900473ffffffffffffffffffffffffffffffffffffffff1673ffffffffffffffffffffffffffffffffffffffff1673ffffffffffffffffffffffffffffffffffffffff16815260200160038201548152602001600482015481526020016005820154815250509050919050565b600260009054906101000a900473ffffffffffffffffffffffffffffffffffffffff1681565b60006064600154600360008581526020019081526020016000206002015461040991906111d0565b610413919061119f565b9050919050565b60015481565b60055481565b60046020528060005260406000206000915090508060000154908060010160009054906101000a900473ffffffffffffffffffffffffffffffffffffffff16908060020160009054906101000a900473ffffffffffffffffffffffffffffffffffffffff16908060030154908060040154908060050154905086565b60036020528060005260406000206000915090508060000154908060010180546104cb906112b4565b80601f01602080910402602001604051908101604052809291908181526020018280546104f7906112b4565b80156105445780601f1061051957610100808354040283529160200191610544565b820191906000526020600020905b81548152906001019060200180831161052757829003601f168201915b5050505050908060020154908060030160009054906101000a900473ffffffffffffffffffffffffffffffffffffffff16908060030160149054906101000a900460ff16905085565b60065481565b6000600560008154809291906105a8906112e6565b9190505590506040518060a001604052808281526020018481526020018381526020013373ffffffffffffffffffffffffffffffffffffffff1681526020016001151581525060036000838152602001908152602001600020600082015181600001556020820151816001019080519060200190610627929190610b0a565b506040820151816002015560608201518160030160006101000a81548173ffffffffffffffffffffffffffffffffffffffff021916908373ffffffffffffffffffffffffffffffffffffffff16021790555060808201518160030160146101000a81548160ff0219169083151502179055509050507fe0260522a98ce785f3a36a80f374a55bcdbb080a0d2abdaea454e025f09345ab818484336040516106d19493929190611071565b60405180910390a1505050565b60008054906101000a900473ffffffffffffffffffffffffffffffffffffffff1681565b813373ffffffffffffffffffffffffffffffffffffffff166003600083815260200190815260200160002060030160009054906101000a900473ffffffffffffffffffffffffffffffffffffffff1673ffffffffffffffffffffffffffffffffffffffff16146107a7576040517f08c379a000000000000000000000000000000000000000000000000000000000815260040161079e90610f67565b60405180910390fd5b600060036000858152602001908152602001600020905060006107c9856103e1565b905080341461080d576040517f08c379a000000000000000000000000000000000000000000000000000000000815260040161080490610f27565b60405180910390fd5b838260030160006101000a81548173ffffffffffffffffffffffffffffffffffffffff021916908373ffffffffffffffffffffffffffffffffffffffff1602179055506040518060c001604052808681526020013373ffffffffffffffffffffffffffffffffffffffff1681526020018573ffffffffffffffffffffffffffffffffffffffff168152602001836002015481526020018281526020014281525060046000600660008154809291906108c4906112e6565b9190505581526020019081526020016000206000820151816000015560208201518160010160006101000a81548173ffffffffffffffffffffffffffffffffffffffff021916908373ffffffffffffffffffffffffffffffffffffffff16021790555060408201518160020160006101000a81548173ffffffffffffffffffffffffffffffffffffffff021916908373ffffffffffffffffffffffffffffffffffffffff160217905550606082015181600301556080820151816004015560a082015181600501559050507fe17df34c41a43b850ebae2a95e60e9e28e6557b93ae34d6f32d7cd9f15d8e16b8533868560020154856040516109ca959493929190610fbd565b60405180910390a16000600260009054906101000a900473ffffffffffffffffffffffffffffffffffffffff1673ffffffffffffffffffffffffffffffffffffffff1682604051610a1a90610ef7565b60006040518083038185875af1925050503d8060008114610a57576040519150601f19603f3d011682016040523d82523d6000602084013e610a5c565b606091505b5050905080610aa0576040517f08c379a0000000000000000000000000000000000000000000000000000000008152600401610a9790610f47565b60405180910390fd5b505050505050565b6040518060c0016040528060008152602001600073ffffffffffffffffffffffffffffffffffffffff168152602001600073ffffffffffffffffffffffffffffffffffffffff1681526020016000815260200160008152602001600081525090565b828054610b16906112b4565b90600052602060002090601f016020900481019282610b385760008555610b7f565b82601f10610b5157805160ff1916838001178555610b7f565b82800160010185558215610b7f579182015b82811115610b7e578251825591602001919060010190610b63565b5b509050610b8c9190610b90565b5090565b5b80821115610ba9576000816000905550600101610b91565b5090565b6000610bc0610bbb84611148565b611117565b905082815260208101848484011115610bd857600080fd5b610be3848285611272565b509392505050565b600081359050610bfa816113fc565b92915050565b600082601f830112610c1157600080fd5b8135610c21848260208601610bad565b91505092915050565b600081359050610c3981611413565b92915050565b60008060408385031215610c5257600080fd5b600083013567ffffffffffffffff811115610c6c57600080fd5b610c7885828601610c00565b9250506020610c8985828601610c2a565b9150509250929050565b600060208284031215610ca557600080fd5b6000610cb384828501610c2a565b91505092915050565b60008060408385031215610ccf57600080fd5b6000610cdd85828601610c2a565b9250506020610cee85828601610beb565b9150509250929050565b610d018161122a565b82525050565b610d108161122a565b82525050565b610d1f8161123c565b82525050565b6000610d3082611178565b610d3a818561118e565b9350610d4a818560208601611281565b610d53816113eb565b840191505092915050565b6000610d6b60148361118e565b91507f496e636f72726563742074617820616d6f756e740000000000000000000000006000830152602082019050919050565b6000610dab60128361118e565b91507f4661696c656420746f2073656e642074617800000000000000000000000000006000830152602082019050919050565b6000610deb600083611183565b9150600082019050919050565b6000610e0560288361118e565b91507f4f6e6c79206173736574206f776e65722063616e20706572666f726d2074686960008301527f7320616374696f6e0000000000000000000000000000000000000000000000006020830152604082019050919050565b60c082016000820151610e746000850182610ed9565b506020820151610e876020850182610cf8565b506040820151610e9a6040850182610cf8565b506060820151610ead6060850182610ed9565b506080820151610ec06080850182610ed9565b5060a0820151610ed360a0850182610ed9565b50505050565b610ee281611268565b82525050565b610ef181611268565b82525050565b6000610f0282610dde565b9150819050919050565b6000602082019050610f216000830184610d07565b92915050565b60006020820190508181036000830152610f4081610d5e565b9050919050565b60006020820190508181036000830152610f6081610d9e565b9050919050565b60006020820190508181036000830152610f8081610df8565b9050919050565b600060c082019050610f9c6000830184610e5e565b92915050565b6000602082019050610fb76000830184610ee8565b92915050565b600060a082019050610fd26000830188610ee8565b610fdf6020830187610d07565b610fec6040830186610d07565b610ff96060830185610ee8565b6110066080830184610ee8565b9695505050505050565b600060c0820190506110256000830189610ee8565b6110326020830188610d07565b61103f6040830187610d07565b61104c6060830186610ee8565b6110596080830185610ee8565b61106660a0830184610ee8565b979650505050505050565b60006080820190506110866000830187610ee8565b81810360208301526110988186610d25565b90506110a76040830185610ee8565b6110b46060830184610d07565b95945050505050565b600060a0820190506110d26000830188610ee8565b81810360208301526110e48187610d25565b90506110f36040830186610ee8565b6111006060830185610d07565b61110d6080830184610d16565b9695505050505050565b6000604051905081810181811067ffffffffffffffff8211171561113e5761113d6113bc565b5b8060405250919050565b600067ffffffffffffffff821115611163576111626113bc565b5b601f19601f8301169050602081019050919050565b600081519050919050565b600081905092915050565b600082825260208201905092915050565b60006111aa82611268565b91506111b583611268565b9250826111c5576111c461135e565b5b828204905092915050565b60006111db82611268565b91506111e683611268565b9250817fffffffffffffffffffffffffffffffffffffffffffffffffffffffffffffffff048311821515161561121f5761121e61132f565b5b828202905092915050565b600061123582611248565b9050919050565b60008115159050919050565b600073ffffffffffffffffffffffffffffffffffffffff82169050919050565b6000819050919050565b82818337600083830152505050565b60005b8381101561129f578082015181840152602081019050611284565b838111156112ae576000848401525b50505050565b600060028204905060018216806112cc57607f821691505b602082108114156112e0576112df61138d565b5b50919050565b60006112f182611268565b91507fffffffffffffffffffffffffffffffffffffffffffffffffffffffffffffffff8214156113245761132361132f565b5b600182019050919050565b7f4e487b7100000000000000000000000000000000000000000000000000000000600052601160045260246000fd5b7f4e487b7100000000000000000000000000000000000000000000000000000000600052601260045260246000fd5b7f4e487b7100000000000000000000000000000000000000000000000000000000600052602260045260246000fd5b7f4e487b7100000000000000000000000000000000000000000000000000000000600052604160045260246000fd5b6000601f19601f8301169050919050565b6114058161122a565b811461141057600080fd5b50565b61141c81611268565b811461142757600080fd5b5056fea2646970667358221220c57af4347dedcd446bf7fa94423203d990c54519717d7e1b29432415962c821564736f6c63430008000033",
  "immutableReferences": {},
  "source": "\r\n\r\n// SPDX-License-Identifier: UNLICENSED\r\npragma solidity ^0.8.0;\r\n\r\ncontract AssetTransactionSystem {\r\n    address public admin;\r\n    uint256 public taxRate;\r\n    address public taxAdmin; \r\n\r\n    struct Asset {\r\n        uint256 id;\r\n        string name;\r\n        uint256 value;\r\n        address owner;\r\n        bool isRegistered;\r\n    }\r\n\r\n    struct Transaction {\r\n        uint256 assetId;\r\n        address from;\r\n        address to;\r\n        uint256 value;\r\n        uint256 taxPaid;\r\n        uint256 timestamp;\r\n    }\r\n\r\n    mapping(uint256 => Asset) public assets;\r\n    mapping(uint256 => Transaction) public transactions;\r\n    uint256 public nextAssetId;\r\n    uint256 public nextTransactionId;\r\n\r\n    event AssetRegistered(uint256 assetId, string name, uint256 value, address owner);\r\n    event AssetTransferred(uint256 assetId, address from, address to, uint256 value, uint256 taxPaid);\r\n\r\n    constructor(uint256 _taxRate, address _taxAdmin) {\r\n        require(_taxAdmin != address(0), \"Tax admin address cannot be zero\");\r\n        admin = msg.sender;\r\n        taxRate = _taxRate;\r\n        taxAdmin = _taxAdmin;\r\n    }\r\n\r\n    modifier onlyAdmin() {\r\n        require(msg.sender == admin, \"Only admin can perform this action\");\r\n        _;\r\n    }\r\n\r\n    modifier onlyOwner(uint256 _assetId) {\r\n        require(assets[_assetId].owner == msg.sender, \"Only asset owner can perform this action\");\r\n        _;\r\n    }\r\n\r\n    function registerAsset(string memory _name, uint256 _value) public {\r\n        uint256 assetId = nextAssetId++;\r\n        assets[assetId] = Asset(assetId, _name, _value, msg.sender, true);\r\n        emit AssetRegistered(assetId, _name, _value, msg.sender);\r\n    }\r\n\r\n    function calculateTax(uint256 _assetId) public view returns (uint256) {\r\n        return (assets[_assetId].value * taxRate) / 100;\r\n    }\r\n\r\n    function transferAsset(uint256 _assetId, address _to) public payable onlyOwner(_assetId) {\r\n        Asset storage asset = assets[_assetId];\r\n        uint256 taxPaid = calculateTax(_assetId);\r\n\r\n        // Check that the correct tax amount is sent with the transaction\r\n        require(msg.value == taxPaid, \"Incorrect tax amount\");\r\n\r\n        // Transfer asset\r\n        asset.owner = _to;\r\n        transactions[nextTransactionId++] = Transaction(_assetId, msg.sender, _to, asset.value, taxPaid, block.timestamp);\r\n        emit AssetTransferred(_assetId, msg.sender, _to, asset.value, taxPaid);\r\n\r\n        // Send tax to taxAdmin\r\n        (bool sent, ) = payable(taxAdmin).call{value: taxPaid}(\"\");\r\n        require(sent, \"Failed to send tax\");\r\n    }\r\n\r\n    function getTransactionDetails(uint256 _transactionId) public view returns (Transaction memory) {\r\n        return transactions[_transactionId];\r\n    }\r\n}\r\n",
  "sourcePath": "D:\\NSBM\\FINAL year\\Final year Research\\Repository\\BlockchainTaxSystem\\contracts\\AssetTransactions.sol",
  "compiler": {
    "name": "solc",
    "version": "0.8.0+commit.c7dfd78e.Emscripten.clang"
  },
  "schemaVersion": "3.4.16",
  "updatedAt": "2023-10-30T08:35:33.261Z",
  "networkType": "ethereum",
  "devdoc": {
    "kind": "dev",
    "methods": {},
    "version": 1
  },
  "userdoc": {
    "kind": "user",
    "methods": {},
    "version": 1
  }
}